S00D0000426C696E6B2E7372656327
S11300000C945C000C9479000C9479000C947900A5
S11300100C9479000C9479000C9479000C94790078
S11300200C9479000C9479000C9479000C943502AA
S11300300C9479000C9479000C9479000C94790058
S11300400C940D060C9479000C9479000C947900AE
S11300500C9479000C9479000C9479000C94790038
S11300600C9479000C94790000000008000201004F
S1130070000304070000000000000000010204085F
S113008010204080010204081020010204081020FE
S1130090040404040404040402020202020203032A
S11300A00303030300000000250028002B000000C8
S11300B00000240027002A0011241FBECFEFD8E03F
S11300C0DEBFCDBF11E0A0E0B1E0E2E5FEE002C09A
S11300D005900D92A031B107D9F724E0A0E1B1E079
S11300E001C01D92AE3BB207E1F70E94FE050C94DD
S11300F027070C94000061E08DE00E94F70684EF6E
S113010091E00E94900560E08DE00E94F70684EF84
S113011091E00E949005EFCF209AC1E085B18C2731
S113012085B980ED97E00E949005F8CF219AC2E04E
S113013085B18C2785B988EC90E00E949005F8CFB2
S1130140AF92BF92CF92DF92EF92FF920F9361E052
S11301508DE00E94BB06A12CB12CC12CD12CE12C2A
S1130160F12C00E020E030E04CE251E062E071E08C
S11301708BE790E00E94320320E030E044E650E058
S113018065E071E08CE890E00E94320320E030E00A
S113019044E650E068E071E086E990E00E943203B2
S11301A00F91FF90EF90DF90CF90BF90AF900C94A1
S11301B02104089531E1FC013083319722E2208348
S11301C03197A3E3A083319760833197708331978C
S11301D01082319760E8608331971082319762E032
S11301E06083319763E06083319764E06083319783
S11301F065E06083319766E06083319767E06083F0
S1130200319768E06083319769E06083319760E1FA
S1130210608331973083319732E13083319733E112
S11302203083319734E13083319735E1308331972E
S113023036E13083319737E13083319738E13083C9
S1130240319739E13083319730E23083319731E2AD
S1130250308331972083319723E220833197408381
S113026031975083319726E22083319727E2208308
S1130270319728E22083319729E22083319720E3C4
S11302802083319721E32083869708951092890073
S11302908CE7809388008BE080938100EFE6F0E0A8
S11302A0808182608083A091B304B091B404CD9125
S11302B0CDBFDD91DEBFFF91EF91DF91CF91BF9173
S11302C0AF919F918F917F916F915F914F913F91EA
S11302D02F911F910F91FF90EF90DF90CF90BF90DF
S11302E0AF909F908F907F906F905F904F903F90D2
S11302F02F901F900F900FBE0F90089581E00895E6
S11303000F920FB6F8940F921F9211242F923F92DE
S11303104F925F926F927F928F929F92AF92BF9211
S1130320CF92DF92EF92FF920F931F932F933F93FD
S11303304F935F936F937F938F939F93AF93BF93E9
S1130340CF93DF93EF93FF93A091B304B091B404E0
S11303500DB60D920EB60D920E94B105A091B30494
S1130360B091B404CD91CDBFDD91DEBFFF91EF918B
S1130370DF91CF91BF91AF919F918F917F916F91B9
S11303805F914F913F912F911F910F91FF90EF90AB
S1130390DF90CF90BF90AF909F908F907F906F90A1
S11303A05F904F903F902F901F900F900FBE0F9033
S11303B008950F920FB6F8940F921F9211242F9262
S11303C03F924F925F926F927F928F929F92AF92E1
S11303D0BF92CF92DF92EF92FF920F931F932F93CE
S11303E03F934F935F936F937F938F939F93AF93B9
S11303F0BF93CF93DF93EF93FF93A091B304B09196
S1130400B4040DB60D920EB60D920E9459048111DA
S11304100E94B105A091B304B091B404CD91CDBFB5
S1130420DD91DEBFFF91EF91DF91CF91BF91AF914D
S11304309F918F917F916F915F914F913F912F91F8
S11304401F910F91FF90EF90DF90CF90BF90AF90EE
S11304509F908F907F906F905F904F903F902F90E0
S11304601F900F900FBE0F9008950E94D901189508
S1130470CF93DF93EC010E9453048091100190917B
S11304801101892B31F485E191E09093110180935E
S113049010012091120130911301CE01820F931F9C
S11304A0813543E0940770F42817390758F4C09154
S11304B01001D0911101C20FD31F909313018093A7
S11304C0120102C0C0E0D0E00E942005CE01DF91FD
S11304D0CF9108950895FC010396928381832FEFB1
S11304E03FEF3483238396838583908787831082A9
S11304F00895FC01118610860895CF93DF939C0123
S1130500FB01DC011196CD91DC911297D383C28358
S11305108C819D81958384838C819D81DC011396DC
S11305207C936E9312977D836C8331872087F901C6
S113053080818F5F8083DF91CF9108950F931F9304
S1130540CF93DF938C01FB01808191818F3F2FEF4B
S1130550920721F4E801AF81B8850EC0D801139643
S113056012962D913C911397E90148815981841782
S1130570950710F0D901F4CF12968D919C911397A1
S113058093838283EC01FD83EC83B583A483139668
S1130590FC93EE93129711870087F80180818F5F97
S11305A08083DF91CF911F910F910895CF93DF93B3
S11305B0FC01A085B1858281938124813581EC0180
S11305C03D832C83C481D5819B838A8311968D912D
S11305D09C9112978E179F0721F41296DC93CE9369
S11305E01197118610868C9181508C93DF91CF9155
S11305F00895FFCFCF93DF93E091B304F091B40457
S11306009383828320916D0430916E048217930743
S113061070F46091B3047091B40480917904909162
S11306207A046E5F7F4FDF91CF910C949E02EC01B0
S11306306091B3047091B40480917B0490917C0424
S11306406E5F7F4F0E949E02809100019091010194
S1130650C817D90720F4D0930101C0930001DF919A
S1130660CF9108955F926F927F928F929F92AF92F3
S1130670BF92CF92DF92EF92FF920F931F93CF938B
S1130680DF934C01162F572E5A01390181E290E075
S11306900E943802EC01892B79F0C114D10421F4B1
S11306A0C5010E94380201C0C601988F8F8B009744
S11306B029F4CE010E946A028FEFB3C021E0A21A8E
S11306C0B108A80EB91EBE01675E7F4FE12FF52D5C
S11306D0CF0108969F014191DB014D93BD01D901E2
S11306E02C91222319F0E817F907A1F718A2102F6B
S11306F0043008F013E01E8B6E01B2E0CB0ED11C67
S1130700C6010E947902CE010C960E947902D98713
S1130710C88784E090E0811B91099D878C87DB8BDF
S1130720CA8BA301B401C5010E94DA0099838883AE
S1130730E114F10419F0F701D183C0830FB6F894E2
S11307400F9280916F048F5F80936F048091B30444
S11307509091B404892B89F5D093B404C093B30465
S113076080916F048130C1F58FE894E00E946B02A0
S113077088E994E00E946B0281EA94E00E946B0293
S11307808AEA94E00E946B0286E894E00E946B027D
S11307908DE794E00E946B0280E794E00E946B0274
S11307A086E894E090937C0480937B048DE794E046
S11307B090937A04809379040FC080916B04811123
S11307C00BC0E091B304F091B4048689081720F0BB
S11307D0D093B404C093B304809167048F5F809373
S11307E067048E8990916C04981710F480936C04BC
S11307F0F9E08F9FC0011124B60181579B4F0E94DD
S11308007D020F900FBE80916B04882349F0E09124
S1130810B304F091B4048689801710F40E94800117
S113082081E0DF91CF911F910F91FF90EF90DF90C6
S1130830CF90BF90AF909F908F907F906F905F907C
S11308400895AF92BF92CF92DF92EF92FF920F93EF
S1130850A12CB12CC12CD12CE12CF12C00E020E0F6
S113086030E045E550E06BE071E089EF92E00E94F2
S11308703203813081F4F89480936B0410926E04F7
S113088010926D040F91FF90EF90DF90CF90BF9086
S1130890AF900C9446010F91FF90EF90DF90CF90B2
S11308A0BF90AF900895809166048F5F8093660433
S11308B00895CF92DF92EF92FF920F931F93CF93FD
S11308C0DF93809166048111A7C080916D0490919B
S11308D06E04019690936E0480936D04E0906D0411
S11308E0F0906E04E114F10479F580917B04909109
S11308F07C042091790430917A0430937C04209311
S11309007B0490937A0480937904809168048F5FC8
S113091080936804E0917B04F0917C0480818111D0
S113092003C08FEF9FEF0CC0E0917B04F0917C0437
S11309300580F681E02D0680F781E02D8281938188
S11309409093010180930001809100019091010135
S1130950C0E0E816F90608F44FC0D9E0E0917B0442
S1130960F0917C048081811103C08FEF9FEF11C04F
S1130970E0917B04F0917C040580F681E02D0681F2
S11309801781D80112968D919C911397E816F90658
S113099028F490930101809300012EC06801B2E015
S11309A0CB0ED11CC6010E94D602F8018489958918
S11309B0892B21F0C8010C960E94D602D8015696C4
S11309C09C9180916C04891710F490936C04D99FC6
S11309D0C0011124B60181579B4F0E947D02E09112
S11309E0B304F091B404D80156969C918689981763
S11309F008F4B4CFC1E0B2CFE091B304F091B404F1
S1130A00E689B9E0EB9FF0011124E157FB4F8081A7
S1130A10823040F0C1E006C080916A048F5F809309
S1130A206A04C0E0809169048111C1E08C2FDF91D8
S1130A30CF911F910F91FF90EF90DF90CF90089589
S1130A40EF92FF920F931F93CF93DF930FB6F89417
S1130A500F928091660481508093660480916604AD
S1130A60882311F080E053C080916F048823D1F370
S1130A7089E0F82EEE24E39480917004882351F1E8
S1130A80E0917504F0917604C681D781CE010C966D
S1130A900E94D6028E010E5F1F4FC8010E94D6022B
S1130AA09E8980916C04891710F490936C04F99ECC
S1130AB0C0011124B80181579B4F0E947D02E0912F
S1130AC0B304F091B4049E8986899817A8F2E09241
S1130AD06904D2CF80916A04811109C080916904AC
S1130AE0813009F0BFCF0E94800181E010C0C1E0D5
S1130AF080916A04882391F30E9459048111C09360
S1130B00690480916A04815080936A04F1CF0F9044
S1130B100FBEDF91CF911F910F91FF90EF90089539
S1130B20CF93DF93EC01892B19F40E94800116C046
S1130B300E94530420916D0430916E04C20FD31FA0
S1130B408091B3049091B40402960E94D602CE011F
S1130B500E94FA020E942005882339F3DF91CF9185
S1130B60089580916604882321F081E080936904CC
S1130B7008951092690499E0E0916C049E9FF0013D
S1130B801124E157FB4F8081811106C080916C04D0
S1130B90815080936C04F0CF80916C0490E049E024
S1130BA0489F9001499F300D1124F901E157FB4FF3
S1130BB0A181B28112960D90BC91A02DB283A18324
S1130BC02E563B4FA217B30731F412962D913C9148
S1130BD013973283218329E0289FF001299FF00D88
S1130BE01124E157FB4F0180F281E02D868197812A
S1130BF09093B4048093B304089508950E94570613
S1130C000E94FD050E94A000C0E0D0E00E94D9002F
S1130C102097E1F30E940000F9CF1F920F920FB6C4
S1130C200F9211242F933F938F939F93AF93BF936E
S1130C308091B6049091B704A091B804B091B9041E
S1130C403091B50423E0230F2D3720F40196A11D24
S1130C50B11D05C026E8230F0296A11DB11D2093E6
S1130C60B5048093B6049093B704A093B804B093EA
S1130C70B9048091BA049091BB04A091BC04B091D2
S1130C80BD040196A11DB11D8093BA049093BB04C9
S1130C90A093BC04B093BD04BF91AF919F918F9179
S1130CA03F912F910F900FBE0F901F90189578943D
S1130CB084B5826084BD84B5816084BD85B582605D
S1130CC085BD85B5816085BDEEE6F0E080818160FB
S1130CD08083E1E8F0E010828081826080838081FB
S1130CE081608083E0E8F0E0808181608083E1EBD3
S1130CF0F0E0808184608083E0EBF0E080818160BB
S1130D008083EAE7F0E08081846080838081826070
S1130D108083808181608083808180688083109259
S1130D20C1000895833081F028F4813099F0823035
S1130D30A1F008958730A9F08830B9F08430D1F457
S1130D40809180008F7D03C0809180008F77809395
S1130D508000089584B58F7702C084B58F7D84BDEB
S1130D6008958091B0008F7703C08091B0008F7D8B
S1130D708093B0000895CF93DF9390E0FC01E45892
S1130D80FF4F2491FC01E057FF4F8491882361F1C8
S1130D9090E0880F991FFC01E255FF4FC591D49153
S1130DA0FC01EC55FF4FA591B491611109C09FB7A7
S1130DB0F8948881209582238883EC912E230BC09C
S1130DC0623061F49FB7F8943881822F8095832331
S1130DD08883EC912E2B2C939FBF06C08FB7F89479
S1130DE0E8812E2B28838FBFDF91CF9108951F9325
S1130DF0CF93DF93282F30E0F901E859FF4F849116
S1130E00F901E458FF4FD491F901E057FF4FC49121
S1130E10CC23C9F0162F81110E949206EC2FF0E02A
S1130E20EE0FFF1FEC55FF4FA591B4918FB7F894C7
S1130E30111105C09C91ED2FE095E92302C0EC91BE
S1130E40ED2BEC938FBFDF91CF911F910895F89410
S1050E50FFCFCE
S1130E52FFFF74310074320074330049444C45007E
S9030000FC
