:100000000C945D000C9485000C9485000C94850084
:100010000C9485000C9485000C9485000C9485004C
:100020000C9485000C9485000C9485000C9450026F
:100030000C9485000C9485000C9485000C9485002C
:100040000C9438080C9485000C9443070C947507A5
:100050000C9485000C9485000C9485000C9485000C
:100060000C9485000C94850000000008000201003B
:100070000003040700000000000000000102040863
:100080001020408001020408102001020408102002
:10009000040404040404040402020202020203032E
:1000A0000303030300000000250028002B000000CC
:1000B0000000240027002A00A50711241FBECFEF4F
:1000C000D8E0DEBFCDBF11E0A0E0B1E0E8EFF2E1A3
:1000D00002C005900D92AC33B107D9F725E0ACE32F
:1000E000B1E001C01D92A738B207E1F710E0CDE5FD
:1000F000D0E004C02197FE010E947409CC35D107DD
:10010000C9F70E94D3070C947A090C940000209A36
:10011000C1E085B18C2785B980ED97E00E94AB05E1
:10012000F8CF219AC2E085B18C2785B988EC90E0A0
:100130000E94AB05F8CF61E08DE00E94220984EFB8
:1001400091E00E94AB0560E08DE00E94220984EFFF
:1001500091E00E94AB0562E071E081EE94E00E94C4
:100160002608E9CFAF92BF92CF92DF92EF92FF9233
:100170000F9326E040E855E260E070E081EE94E005
:100180000E94DE0661E08DE00E94E608A12CB12C01
:10019000C12CD12CE12CF12C00E020E030E04CE22D
:1001A00051E060E171E08BE990E00E944D0320E0B6
:1001B00030E044E650E063E171E087E890E00E94BF
:1001C0004D0320E030E044E650E066E171E081E973
:1001D00090E00E944D030F91FF90EF90DF90CF9041
:1001E000BF90AF900C943C04089531E1FC01308342
:1001F000319722E220833197A3E3A0833197608374
:100200003197708331971082319760E8608331971E
:100210001082319762E06083319763E060833197A9
:1002200064E06083319765E06083319766E06083C6
:10023000319767E06083319768E06083319769E0C8
:100240006083319760E1608331973083319732E189
:100250003083319733E13083319734E13083319704
:1002600035E13083319736E13083319737E13083A0
:10027000319738E13083319739E13083319730E27B
:100280003083319731E2308331972083319723E2F5
:1002900020833197408331975083319726E2208322
:1002A000319727E22083319728E22083319729E292
:1002B0002083319720E32083319721E320838697A1
:1002C0000895109289008CE7809388008BE08093DA
:1002D0008100EFE6F0E0808182608083A091DF04FE
:1002E000B091E004CD91CDBFDD91DEBFFF91EF91E4
:1002F000DF91CF91BF91AF919F918F917F916F913E
:100300005F914F913F912F911F910F91FF90EF902F
:10031000DF90CF90BF90AF909F908F907F906F9025
:100320005F904F903F902F901F900F900FBE0F90B7
:10033000089581E008950F920FB6F8940F921F92DE
:1003400011242F923F924F925F926F927F928F92E1
:100350009F92AF92BF92CF92DF92EF92FF920F9354
:100360001F932F933F934F935F936F937F938F933D
:100370009F93AF93BF93CF93DF93EF93FF93A0919E
:10038000DF04B091E0040DB60D920EB60D920E94FE
:10039000CC05A091DF04B091E004CD91CDBFDD91FB
:1003A000DEBFFF91EF91DF91CF91BF91AF919F9110
:1003B0008F917F916F915F914F913F912F911F91FD
:1003C0000F91FF90EF90DF90CF90BF90AF909F90F4
:1003D0008F907F906F905F904F903F902F901F90E5
:1003E0000F900FBE0F9008950F920FB6F8940F92D2
:1003F0001F9211242F923F924F925F926F927F92A1
:100400008F929F92AF92BF92CF92DF92EF92FF9224
:100410000F931F932F933F934F935F936F937F930C
:100420008F939F93AF93BF93CF93DF93EF93FF93FC
:10043000A091DF04B091E0040DB60D920EB60D92BE
:100440000E94740481110E94CC05A091DF04B09138
:10045000E004CD91CDBFDD91DEBFFF91EF91DF9143
:10046000CF91BF91AF919F918F917F916F915F914C
:100470004F913F912F911F910F91FF90EF90DF903F
:10048000CF90BF90AF909F908F907F906F905F9034
:100490004F903F902F901F900F900FBE0F90089598
:1004A0000E94F4011895CF93DF93EC010E946E0433
:1004B00080913C0190913D01892B31F481E491E0E0
:1004C00090933D0180933C0120913E0130913F018A
:1004D000CE01820F931F813543E0940770F42817F3
:1004E000390758F4C0913C01D0913D01C20FD31F90
:1004F00090933F0180933E0102C0C0E0D0E00E9493
:100500003B05CE01DF91CF9108950895FC0103963C
:10051000928381832FEF3FEF3483238396838583F8
:100520009087878310820895FC01118610860895B4
:10053000CF93DF939C01FB01DC011196CD91DC91FF
:100540001297D383C2838C819D81958384838C8110
:100550009D81DC0113967C936E9312977D836C834F
:1005600031872087F90180818F5F8083DF91CF9170
:1005700008950F931F93CF93DF938C01FB0180812C
:1005800091818F3F2FEF920721F4E801AF81B88569
:100590000EC0D801139612962D913C911397E90144
:1005A000488159818417950710F0D901F4CF12962C
:1005B0008D919C91139793838283EC01FD83EC834F
:1005C000B583A4831396FC93EE931297118700874B
:1005D000F80180818F5F8083DF91CF911F910F9110
:1005E0000895CF93DF93FC01A085B185828193812B
:1005F00024813581EC013D832C83C481D5819B838B
:100600008A8311968D919C9112978E179F0721F4E2
:100610001296DC93CE931197118610868C9181509F
:100620008C93DF91CF910895FFCFCF93DF93E0912B
:10063000DF04F091E0049383828320919904309148
:100640009A048217930770F46091DF047091E004BC
:100650008091A5049091A6046E5F7F4FDF91CF91AA
:100660000C94B902EC016091DF047091E004809178
:10067000A7049091A8046E5F7F4F0E94B9028091F9
:10068000000190910101C817D90720F4D09301010E
:10069000C0930001DF91CF9108955F926F927F9296
:1006A0008F929F92AF92BF92CF92DF92EF92FF9282
:1006B0000F931F93CF93DF934C01162F572E5A01A0
:1006C000390181E290E00E945302EC01892B79F01C
:1006D000C114D10421F4C5010E94530201C0C60116
:1006E000988F8F8B009729F4CE010E9485028FEF9F
:1006F000B3C021E0A21AB108A80EB91EBE01675E00
:100700007F4FE12FF52DCF0108969F014191DB012D
:100710004D93BD01D9012C91222319F0E817F90757
:10072000A1F718A2102F043008F013E01E8B6E0101
:10073000B2E0CB0ED11CC6010E949402CE010C96F1
:100740000E949402D987C88784E090E0811B9109B8
:100750009D878C87DB8BCA8BA301B401C5010E94E6
:10076000F50099838883E114F10419F0F701D1832E
:10077000C0830FB6F8940F9280919B048F5F809393
:100780009B048091DF049091E004892B89F5D0933C
:10079000E004C093DF0480919B048130C1F58BEBB2
:1007A00094E00E94860284EC94E00E9486028DEC24
:1007B00094E00E94860286ED94E00E94860282EB1D
:1007C00094E00E94860289EA94E00E9486028CE905
:1007D00094E00E94860282EB94E09093A8048093B8
:1007E000A70489EA94E09093A6048093A5040FC01F
:1007F0008091970481110BC0E091DF04F091E00437
:100800008689081720F0D093E004C093DF0480911C
:1008100093048F5F809393048E8990919804981726
:1008200010F480939804F9E08F9FC0011124B60161
:1008300085549B4F0E9498020F900FBE80919704A1
:10084000882349F0E091DF04F091E0048689801765
:1008500010F40E949B0181E0DF91CF911F910F91D5
:10086000FF90EF90DF90CF90BF90AF909F908F90D0
:100870007F906F905F900895AF92BF92CF92DF927A
:10088000EF92FF920F93A12CB12CC12CD12CE12C13
:10089000F12C00E020E030E045E550E069E171E056
:1008A00084E193E00E944D03813081F4F8948093B9
:1008B000970410929A04109299040F91FF90EF9070
:1008C000DF90CF90BF90AF900C9461010F91FF909B
:1008D000EF90DF90CF90BF90AF90089580919204F9
:1008E0008F5F809392040895CF92DF92EF92FF92F0
:1008F0000F931F93CF93DF93809192048111A7C030
:100900008091990490919A04019690939A0480930F
:100910009904E0909904F0909A04E114F10479F5B7
:100920008091A7049091A8042091A5043091A60479
:100930003093A8042093A7049093A6048093A50461
:10094000809194048F5F80939404E091A704F091C8
:10095000A8048081811103C08FEF9FEF0CC0E0914C
:10096000A704F091A8040580F681E02D0680F781A8
:10097000E02D828193819093010180930001809109
:10098000000190910101C0E0E816F90608F44FC09B
:10099000D9E0E091A704F091A8048081811103C0FF
:1009A0008FEF9FEF11C0E091A704F091A80405809C
:1009B000F681E02D06811781D80112968D919C91C8
:1009C0001397E816F90628F490930101809300012B
:1009D0002EC06801B2E0CB0ED11CC6010E94F1020C
:1009E000F80184899589892B21F0C8010C960E9411
:1009F000F102D80156969C9180919804891710F4C1
:100A000090939804D99FC0011124B60185549B4F3F
:100A10000E949802E091DF04F091E004D80156961C
:100A20009C918689981708F4B4CFC1E0B2CFE091C9
:100A3000DF04F091E004E689B9E0EB9FF0011124B6
:100A4000E554FB4F8081823040F0C1E006C08091C8
:100A500096048F5F80939604C0E080919504811185
:100A6000C1E08C2FDF91CF911F910F91FF90EF90FC
:100A7000DF90CF900895EF92FF920F931F93CF9343
:100A8000DF930FB6F8940F92809192048150809377
:100A9000920480919204882311F080E053C08091E9
:100AA0009B048823D1F389E0F82EEE24E39480910F
:100AB0009C04882351F1E091A104F091A204C68125
:100AC000D781CE010C960E94F1028E010E5F1F4F5E
:100AD000C8010E94F1029E8980919804891710F440
:100AE00090939804F99EC0011124B80185549B4F3E
:100AF0000E949802E091DF04F091E0049E898689CB
:100B00009817A8F2E0929504D2CF809196048111B3
:100B100009C080919504813009F0BFCF0E949B01EC
:100B200081E010C0C1E080919604882391F30E9477
:100B300074048111C0939504809196048150809330
:100B40009604F1CF0F900FBEDF91CF911F910F91BF
:100B5000FF90EF900895CF93DF93EC01892B19F468
:100B60000E949B0116C00E946E042091990430914E
:100B70009A04C20FD31F8091DF049091E004029683
:100B80000E94F102CE010E9415030E943B058823BA
:100B900039F3DF91CF91089580919204882321F059
:100BA00081E08093950408951092950499E0E09176
:100BB00098049E9FF0011124E554FB4F8081811120
:100BC00006C080919804815080939804F0CF809162
:100BD000980490E049E0489F9001499F300D11240E
:100BE000F901E554FB4FA181B28112960D90BC91A1
:100BF000A02DB283A18322543B4FA217B30731F437
:100C000012962D913C9113973283218329E0289FDE
:100C1000F001299FF00D1124E554FB4F0180F28172
:100C2000E02D868197819093E0048093DF040895FE
:100C3000FC01918D228D892F90E0805C9F4F821B5B
:100C400091098F7399270895FC01918D828D9817D2
:100C500031F0828DE80FF11D858D90E008958FEFC2
:100C60009FEF0895FC01918D828D981761F0828D20
:100C7000DF01A80FB11D5D968C91928D9F5F9F73D0
:100C8000928F90E008958FEF9FEF08958BE997E0A2
:100C9000892B49F080E090E0892B29F00E949B0786
:100CA00081110C9400000895FC01848DDF01A80FD0
:100CB000B11DA35ABF4F2C91848D90E001968F7384
:100CC0009927848FA689B7892C93A089B1898C91A3
:100CD00080648C93938D848D981306C00288F38969
:100CE000E02D80818F7D80830895CF93DF93EC0189
:100CF000888D8823C9F0EA89FB89808185FD05C03C
:100D0000A889B9898C9186FD0FC00FB607FCF5CF75
:100D1000808185FFF2CFA889B9898C9185FFEDCFBD
:100D2000CE010E945406E7CFDF91CF910895EF9254
:100D3000FF920F931F93CF93DF93EC0181E0888F95
:100D40009B8D8C8D981305C0E889F989808185FD7C
:100D500024C0F62E0B8D10E00F5F1F4F0F7311276D
:100D6000E02E8C8DE8120CC00FB607FCFACFE88994
:100D7000F989808185FFF5CFCE010E945406F1CF1D
:100D80008B8DFE01E80FF11DE35AFF4FF0820B8FB0
:100D9000EA89FB898081806207C0EE89FF896083D0
:100DA000E889F98980818064808381E090E0DF9127
:100DB000CF911F910F91FF90EF900895CF92DF9206
:100DC000EF92FF921F93CF93DF93EC016A017B01B7
:100DD000122FE889F98982E080834115514E61051F
:100DE0007105B1F060E079E08DE390E0A701960134
:100DF0000E945209DA01C9010197A109B109B6950A
:100E0000A79597958795AC01411580E15807A8F003
:100E1000E889F989108260E874E88EE190E0A70122
:100E200096010E945209BA01A90141505109610974
:100E300071097695679557954795EC85FD855083A3
:100E4000EE85FF854083188EEC89FD891083EA8941
:100E5000FB89808180618083EA89FB898081886049
:100E60008083EA89FB89808180688083EA89FB89A5
:100E700080818F7D8083DF91CF911F91FF90EF90D4
:100E8000DF90CF9008951F920F920FB60F9211240A
:100E90002F938F939F93EF93FF93E091F104F09141
:100EA000F2048081E091F704F091F80482FD12C011
:100EB00090818091FA048F5F8F732091FB048217D9
:100EC00051F0E091FA04F0E0EF51FB4F958F8093E1
:100ED000FA0401C08081FF91EF919F918F912F9132
:100EE0000F900FBE0F901F9018951F920F920FB684
:100EF0000F9211242F933F934F935F936F937F93A0
:100F00008F939F93AF93BF93EF93FF9381EE94E002
:100F10000E945406FF91EF91BF91AF919F918F91E5
:100F20007F916F915F914F913F912F910F900FBEE5
:100F30000F901F90189581EE94E00E94180621E012
:100F4000892B09F420E0822F0895E1EEF4E013826A
:100F5000128288EE93E0A0E0B0E084839583A683BC
:100F6000B78382E291E09183808385EC90E095875E
:100F7000848784EC90E09787868780EC90E0918B63
:100F8000808B81EC90E0938B828B82EC90E0958B50
:100F9000848B86EC90E0978B868B118E128E138E4D
:100FA000148E089508950E9482080E94D2070E941C
:100FB000B200C6E4D6E00E94F4002097E1F30E945C
:100FC0004606F9CFCF92DF92EF92FF920F931F93D5
:100FD000CF93DF936C017A018B01C0E0D0E0CE1596
:100FE000DF0589F0D8016D918D01D601ED91FC915D
:100FF0000190F081E02DC6010995892B11F47E0145
:1010000002C02196ECCFC701DF91CF911F910F91C4
:10101000FF90EF90DF90CF9008956115710579F002
:10102000FB0101900020E9F73197AF01461B570BF8
:10103000DC01ED91FC910280F381E02D099480E0C8
:1010400090E008956DE071E00C940D080F931F93EC
:10105000CF93DF93EC010E940D088C01CE010E941A
:101060002208800F911FDF91CF911F910F9108955A
:101070001F920F920FB60F9211242F933F938F93CD
:101080009F93AF93BF9380917F0590918005A0912E
:101090008105B091820530917E0523E0230F2D3725
:1010A00020F40196A11DB11D05C026E8230F02966C
:1010B000A11DB11D20937E0580937F05909380052F
:1010C000A0938105B093820580918305909184055A
:1010D000A0918505B09186050196A11DB11D809353
:1010E000830590938405A0938505B0938605BF91F1
:1010F000AF919F918F913F912F910F900FBE0F90C5
:101100001F901895789484B5826084BD84B5816001
:1011100084BD85B5826085BD85B5816085BDEEE6FF
:10112000F0E0808181608083E1E8F0E010828081DE
:1011300082608083808181608083E0E8F0E080814C
:1011400081608083E1EBF0E0808184608083E0EB6C
:10115000F0E0808181608083EAE7F0E08081846054
:1011600080838081826080838081816080838081B0
:10117000806880831092C1000895833081F028F444
:10118000813099F08230A1F008958730A9F088303D
:10119000B9F08430D1F4809180008F7D03C08091BC
:1011A00080008F7780938000089584B58F7702C088
:1011B00084B58F7D84BD08958091B0008F7703C082
:1011C0008091B0008F7D8093B0000895CF93DF931E
:1011D00090E0FC01E458FF4F2491FC01E057FF4FE1
:1011E0008491882361F190E0880F991FFC01E255FA
:1011F000FF4FC591D491FC01EC55FF4FA591B491DF
:10120000611109C09FB7F894888120958223888353
:10121000EC912E230BC0623061F49FB7F8943881B3
:10122000822F809583238883EC912E2B2C939FBF54
:1012300006C08FB7F894E8812E2B28838FBFDF91EB
:10124000CF9108951F93CF93DF93282F30E0F901BA
:10125000E859FF4F8491F901E458FF4FD491F90107
:10126000E057FF4FC491CC23C9F0162F81110E9483
:10127000BD08EC2FF0E0EE0FFF1FEC55FF4FA591DE
:10128000B4918FB7F894111105C09C91ED2FE095A2
:10129000E92302C0EC91ED2BEC938FBFDF91CF914E
:1012A0001F910895A1E21A2EAA1BBB1BFD010DC0C0
:1012B000AA1FBB1FEE1FFF1FA217B307E407F50706
:1012C00020F0A21BB30BE40BF50B661F771F881FE2
:1012D000991F1A9469F760957095809590959B0178
:1012E000AC01BD01CF010895EE0FFF1F0590F491F1
:0812F000E02D0994F894FFCFF2
:1012F800FFFF48656C6C6F20576F726C640D0A00B5
:1013080074310074320074330049444C45000000C5
:1013180000009706E20718063206240675066E6175
:0C1328006E00696E66006F7666002E0095
:00000001FF
